:100000000C942A000C9447000C9447000C94470071
:100010000C9447000C9447000C9447000C94470044
:100020000C9447000C9447000C9447000C94470034
:100030000C9447000C9447000C9447000C94470024
:100040000C9447000C9447000C9447000C94470014
:100050000C94470011241FBECFE5D4E0DEBFCDBF16
:1000600010E0A0E6B0E0E4EDF4E102C005900D92EE
:10007000A03EB107D9F711E0A0EEB0E001C01D929B
:10008000A831B107E1F70E94B1050C94680A0C94FD
:1000900000000F931F93CF93DF93C82FD62F042F09
:1000A000152F80EA0E945C038D2F0E94BA038C2FCB
:1000B0000E94BA03C02FD12F10E089910E94BA0389
:1000C0001F5F1630D1F70E949603DF91CF911F91E9
:1000D0000F910895CF93DF93C82FD62F80EA0E9407
:1000E0005C038D2F0E94BA038C2F0E94BA03C0E4D8
:1000F0008FEF0E94BA03C150D9F70E949603DF9197
:10010000CF910895EF92FF920F931F93CF93C82F33
:10011000062F7A0180EA0E945C03802F0E94BA03B6
:100120008C2F0E94BA0381EA0E9479038701C0E004
:100130000E94CC03F80181938F01CF5FC530C1F7D6
:100140000E94D403F70185830E949603CF911F91EB
:100150000F91FF90EF900895823451F1833420F491
:10016000813409F07BC007C0833409F43EC0843475
:1001700009F074C057C0413069F42AB381E090E0BF
:10018000AC0102C0440F551F6A95E2F7BA01622B19
:100190006ABB08952AB381E090E0AC0102C0440F2D
:1001A000551F6A95E2F7BA01609562236ABB08950C
:1001B000413069F427B381E090E0AC0102C0440F04
:1001C000551F6A95E2F7BA01622B67BB089527B302
:1001D00081E090E0AC0102C0440F551F6A95E2F740
:1001E000BA016095622367BB0895413069F424B376
:1001F00081E090E0AC0102C0440F551F6A95E2F720
:10020000BA01622B64BB089524B381E090E0AC0195
:1002100002C0440F551F6A95E2F7BA016095622348
:1002200064BB0895413069F421B381E090E0AC01F2
:1002300002C0440F551F6A95E2F7BA01622B61BBF9
:10024000089521B381E090E0AC0102C0440F551F36
:100250006A95E2F7BA016095622361BB0895823422
:1002600051F1833420F4813409F07BC007C083341A
:1002700009F43EC0843409F074C057C0413069F4B9
:100280002BB381E090E0AC0102C0440F551F6A958A
:10029000E2F7BA01622B6BBB08952BB381E090E0CB
:1002A000AC0102C0440F551F6A95E2F7BA01609590
:1002B00062236BBB0895413069F428B381E090E07C
:1002C000AC0102C0440F551F6A95E2F7BA01622BD8
:1002D00068BB089528B381E090E0AC0102C0440FF0
:1002E000551F6A95E2F7BA016095622368BB0895CD
:1002F000413069F425B381E090E0AC0102C0440FC5
:10030000551F6A95E2F7BA01622B65BB089525B3C4
:1003100081E090E0AC0102C0440F551F6A95E2F7FE
:10032000BA016095622365BB0895413069F422B338
:1003300081E090E0AC0102C0440F551F6A95E2F7DE
:10034000BA01622B62BB089522B381E090E0AC0158
:1003500002C0440F551F6A95E2F7BA016095622307
:1003600062BB08958234F1F0833420F4813409F0C3
:100370004FC006C0833441F1843409F049C036C00F
:1003800029B381E090E0062E02C0880F991F0A94DD
:10039000E2F730E08223932302C0959587956A9512
:1003A000E2F7089526B381E090E0062E02C0880FA0
:1003B000991F0A94E2F730E08223932302C09595B7
:1003C00087956A95E2F7089523B381E090E0062EC1
:1003D00002C0880F991F0A94E2F730E0822393232A
:1003E00002C0959587956A95E2F7089520B381E05C
:1003F00090E0062E02C0880F991F0A94E2F730E0C1
:100400008223932302C0959587956A95E2F7089514
:1004100080E008958234B9F0833418F48134C9F54A
:1004200005C08334E9F08434A1F527C02BB381E003
:1004300090E0AC0102C0440F551F6A95E2F7BA0183
:1004400062276BBB089528B381E090E0AC0102C045
:10045000440F551F6A95E2F7BA01622768BB0895F9
:1004600025B381E090E0AC0102C0440F551F6A95AE
:10047000E2F7BA01622765BB089522B381E090E0FC
:10048000AC0102C0440F551F6A95E2F7BA0162271A
:1004900062BB0895823461F0833418F4813469F4C6
:1004A00005C0833439F0843441F406C06ABB089532
:1004B00067BB089564BB089561BB0895823461F001
:1004C000833418F4813469F405C0833439F08434FA
:1004D00041F406C06BBB089568BB089565BB0895E1
:1004E00062BB0895823461F0833418F4813471F46E
:1004F00005C0833439F0843449F406C089B30895C3
:1005000086B3089583B3089580B3089580E0089575
:10051000823451F1833420F4813409F07BC007C068
:10052000833409F43EC0843409F074C057C04130AC
:1005300069F42BB381E090E0AC0102C0440F551F79
:100540006A95E2F7BA01622B6BBB08952BB381E089
:1005500090E0AC0102C0440F551F6A95E2F7BA0162
:10056000609562236BBB0895413069F428B381E044
:1005700090E0AC0102C0440F551F6A95E2F7BA0142
:10058000622B68BB089528B381E090E0AC0102C003
:10059000440F551F6A95E2F7BA016095622368BB64
:1005A0000895413069F425B381E090E0AC0102C0C8
:1005B000440F551F6A95E2F7BA01622B65BB089597
:1005C00025B381E090E0AC0102C0440F551F6A954D
:1005D000E2F7BA016095622365BB0895413069F482
:1005E00022B381E090E0AC0102C0440F551F6A9530
:1005F000E2F7BA01622B62BB089522B381E090E07A
:10060000AC0102C0440F551F6A95E2F7BA0160952C
:10061000622362BB08956F70823481F0833418F4D2
:100620008134F1F405C0833479F08434C9F412C004
:100630008BB3807F8BBB8BB3862B8BBB88B3807FC8
:1006400088BB88B3862B88BB85B3807F85BB85B389
:10065000862B85BB82B3807F82BB82B3682B62BB53
:1006600008956295607F823481F0833418F4813478
:10067000F1F405C0833479F08434C9F412C08BB32B
:100680008F708BBB8BB3862B8BBB88B38F7088BB73
:1006900088B3862B88BB85B38F7085BB85B3862BCB
:1006A00085BB82B38F7082BB82B3682B62BB089517
:1006B00011B880E280B9089594EA96BF06B607FEA5
:1006C000FDCF91B1987F983071F483B984E886BFEB
:1006D00006B607FEFDCF81B1887F883131F08032C8
:1006E00031F482E0089580E0089581E0089583E088
:1006F000089594EA96BF06B607FEFDCF91B1987FA4
:10070000903171F483B984E886BF06B607FEFDCF49
:1007100081B1887F803431F0803231F482E00895F5
:1007200080E0089581E0089583E0089584E986BF1C
:1007300006B604FCFDCF08951F93CF93DF93182FC7
:10074000C4EAD4E8C6BF06B607FEFDCF81B1887FF4
:100750008830C1F713B9D6BF06B607FEFDCF81B109
:10076000887F883119F00E949603ECCFDF91CF91FA
:100770001F91089583B984E886BF06B607FEFDCFB2
:1007800081B1887F883221F0803321F481E008959F
:1007900080E0089582E0089584EC86BF06B607FEE7
:1007A000FDCF83B190E0089584E886BF06B607FECA
:1007B000FDCF83B190E0089583E464E041E00E94BE
:1007C000AC0083E465E041E00E94AC0083E466E0B5
:1007D00041E00E94AC0083E467E041E00E94AC008D
:1007E00084E464E040E00E94AC0084E465E040E022
:1007F0000E94AC0084E466E040E00E94AC0084E427
:1008000067E040E00E94AC0008950F931F93CF93E0
:10081000DF93CDB7DEB760970FB6F894DEBF0FBE9B
:10082000CDBFDE011196E0E6F0E080E101900D928F
:100830008150E1F700E083E464E041E00E942F0191
:1008400083E465E041E00E942F0183E466E041E03B
:100850000E942F0183E467E041E00E942F01602F96
:100860006C5F83E440E00E942F0110E0612F6C5F19
:1008700084E40E94B201882361F4E02FF0E0EE0FDF
:10088000FF1FEE0FFF1FE10FF11DEC0FFD1F818118
:1008900004C01F5F143051F70BC060960FB6F89478
:1008A000DEBF0FBECDBFDF91CF911F910F91089595
:1008B0000F5F043009F0BFCF8FEFEFCF81E466E028
:1008C00041E00E942F018FE99FE00197F1F700C0FE
:1008D000000081E466E040E00E942F018FE99FE084
:1008E0000197F1F700C000000895682F82E40E948C
:1008F0005E0281E467E041E00E942F010E945E04F5
:100900008FEC97E00197F1F700C000000895CF93B6
:10091000DF93EC018881882331F021960E947504D1
:1009200089918823D9F7DF91CF910895682F82E4C8
:100930000E945E0281E467E040E00E942F010E9475
:100940005E048FEC97E00197F1F700C00000089576
:10095000982F9150923070F4613170F4662371F0E9
:10096000813019F4862F81580CC0823049F4862FCB
:10097000815407C080E805C080E803C080E801C05A
:1009800080E00E9496048FEC97E00197F1F700C099
:100990000000089581E00E9496048FE19EE4019793
:1009A000F1F700C0000008958FEF91EEA4E08150B0
:1009B0009040A040E1F700C0000082E460E041E028
:1009C0000E94AC0082E461E041E00E94AC0082E45D
:1009D00062E041E00E94AC0082E463E041E00E94FA
:1009E000AC0082E464E041E00E94AC0082E465E097
:1009F00041E00E94AC0082E466E041E00E94AC006D
:100A000082E467E041E00E94AC0081E466E041E0FE
:100A10000E94AC0081E467E041E00E94AC0088E302
:100A20000E949604AFECB7E01197F1F700C0000008
:100A30008EE00E9496048FEC97E00197F1F700C0DA
:100A4000000081E00E949604AFE1BEE41197F1F747
:100A500000C0000086E00E9496048FEC97E00197AA
:100A6000F1F700C000000895DF92EF92FF920F931C
:100A70001F93CF93DF93D82EEB018A01790180ED8C
:100A80000E945C038D2D0E94BA0381ED0E947903C0
:100A90000E94CC0388830E94CC03F80180830E94CB
:100AA000D403F70180830E949603DF91CF911F91B9
:100AB0000F91FF90EF90DF9008959F92AF92BF92B9
:100AC000CF92DF92EF92FF920F931F93CF93DF931A
:100AD000982E7B016A015901E80180ED0E945C03B8
:100AE000892D0E94BA0381ED0E9479030E94CC03F4
:100AF000F70180830E94CC03F60180830E94CC031F
:100B0000F50180830E94D40388830E949603DF91BD
:100B1000CF911F910F91FF90EF90DF90CF90BF90FA
:100B2000AF909F900895CF93C82F81E00E949604C4
:100B300080E790E00E948704CA3028F48C2F805D03
:100B40000E9475040CC08C2F6AE00E948507C92F93
:100B5000805D0E9475048C2F805D0E947504CF918A
:100B600008950E9458030E94D4040E94DC030F2EB3
:100B7000FAEB8F2EF0E09F2EF02D0F2EFAEC6F2E59
:100B8000F0E07F2EF02D0F2EF3ED4F2EF0E05F2ED4
:100B9000F02D0F2EF8EEEF2EF0E0FF2EF02D0F2EA1
:100BA000F8EFCF2EF0E0DF2EF02D0F2EF0EEAF2E6F
:100BB000F0E0BF2EF02D0F2EF7E72F2EF0E03F2EA6
:100BC000F02D0E940504C82F8F3F09F494C18F3087
:100BD00008F0F7C081E00E9496048C2F0E949305D4
:100BE000D501CC9360910201709103014091040101
:100BF000509105012091E6003091E7000091FE0040
:100C00001091FF0083E00E945D05EDB7FEB73A97B3
:100C10000FB6F894FEBF0FBEEDBF3196ADB7BEB7AD
:100C20001296DC92CE921197338222828091040137
:100C300090910501958384838091E6009091E7006F
:100C4000978386838091FE009091FF009187808733
:100C50000E949107EDB7FEB73A960FB6F894FEBF23
:100C60000FBEEDBF6091EE007091EF004091F0007B
:100C70005091F1002091F3003091F40080E00E9447
:100C800034058DB79EB70A970FB6F8949EBF0FBE76
:100C90008DBFEDB7FEB73196ADB7BEB71296FC92D9
:100CA000EE92119788E890E0938382838091F3001D
:100CB0009091F4008F719070958384838091F000FF
:100CC0009091F100978386838091EE009091EF00E0
:100CD000918780870E9491078FEF93EDA0E3815069
:100CE0009040A040E1F700C00000ADB7BEB71A9633
:100CF0000FB6F894BEBF0FBEADBF81E00E94960450
:100D000087E990E00E948704C6010E94870482E080
:100D100061E00E94A8048CE990E00E948704C7016A
:100D20000E948704EFE0F7E23197F1F700C000007E
:100D30008091F5006091F600A5010E9449008FE0C6
:100D400097E20197F1F700C00000809100019091B7
:100D50000101069690930101809300018093F500B4
:100D60009093F600692FA6010E944900AFE0B7E218
:100D70001197F1F700C000008091000190910101EE
:100D8000069690930101809300018093F500909363
:100D9000F600692FA7010E944900EFE0F7E23197C2
:100DA000F1F700C0000080910001909101010696CA
:100DB00090930101809300018093F5009093F600D9
:100DC0009AC08F3009F058C08091000160910101F4
:100DD0008093F5006093F600A7010E948200809145
:100DE0000001909101010697909301018093000109
:100DF0008093F5009093F600692FA6010E9482006F
:100E000080910001909101010697909301018093D8
:100E100000018093F5009093F600692FA5010E94D0
:100E2000820081E00E94960481EA90E00E9487049B
:100E3000D5018C91805D0E9475048FEF93EDA0E346
:100E400081509040A040E1F700C0000081E00E9486
:100E500096048EEA90E00E948704C6010E948704EF
:100E600082E061E00E94A80484EB90E00E94870485
:100E7000C7010E9487043FC081E00E949604C4011C
:100E80000E9487048FEF90E090930101809300010E
:100E90008FEF8093F5001092F600C5E6D6E08091C2
:100EA000F5006091F6000E946A008FEF90E7A2E0E3
:100EB00081509040A040E1F700C000008091000107
:100EC00090910101805C9F4F9093010180930001FC
:100ED0008093F5009093F600219709F781E00E9436
:100EE0009604C3010E94870482E061E00E94A80486
:100EF000C2010E9487048FE79AE1A6E081509040EA
:100F0000A040E1F700C000005CCE991B79E004C06E
:100F1000991F961708F0961B881F7A95C9F7809538
:100F20000895AEE0B0E0E7E9F7E00C943F0A0D89E0
:100F30001E8986E08C831A8309838FEF9FE79E8347
:100F40008D83AE01475E5F4FCE0101966F89788D2C
:100F50000E94B307EF81F885E00FF11F10822E96F3
:100F6000E4E00C945B0AADE0B0E0E9EBF7E00C9450
:100F7000310A3C017D876C875A01FC011782168279
:100F8000838181FFC8C12E010894411C511CF301CB
:100F90009381EC85FD8593FD859193FF8191FD877C
:100FA000EC87882309F4B3C1853241F493FD859120
:100FB00093FF8191FD87EC87853229F490E0B3019E
:100FC0000E94A709E4CFFF24EE2410E01032B0F411
:100FD0008B3269F08C3228F4803251F0833271F414
:100FE0000BC08D3239F0803349F411602CC012608F
:100FF000146029C0186027C0106125C017FD2EC0DD
:10100000282F20532A3098F416FF08C08F2D880F00
:10101000F82EFF0CFF0CF80EF20E15C08E2D880F67
:10102000E82EEE0CEE0CE80EE20E10620CC08E32D2
:1010300021F416FD6CC1106406C08C3611F41068E2
:1010400002C0883659F4EC85FD8593FD859193FFA8
:101050008191FD87EC87882309F0B8CF982F9554AC
:10106000933018F09052933038F424E030E0A20E20
:10107000B31E3FE339830FC0833631F0833781F0ED
:10108000833509F05AC022C0F5018081898322E0AE
:1010900030E0A20EB31E21E0C22ED12C420114C0BA
:1010A00092E0292E312C2A0C3B1CF5018080918086
:1010B00016FF03C06F2D70E002C06FEF7FEFC40119
:1010C0000E949C096C0151011F7715C082E0282EF7
:1010D000312C2A0C3B1CF5018080918016FF03C047
:1010E0006F2D70E002C06FEF7FEFC4010E94910985
:1010F0006C011068510113FD1CC006C080E290E035
:10110000B3010E94A709EA948E2D90E0C816D90673
:10111000A8F30FC0F40117FD859117FF81914F01CE
:1011200090E0B3010E94A709E110EA940894C10875
:10113000D108C114D10471F7E7C0843611F08936A3
:1011400051F5F50117FF07C080819181A281B3811C
:1011500024E030E008C080819181AA2797FDA09506
:10116000BA2F22E030E0A20EB31E012F0F76B7FF98
:1011700008C0B095A095909581959F4FAF4FBF4FF8
:101180000068BC01CD01A2012AE030E00E94D30931
:10119000D82ED4183FC0853721F41F7E2AE030E0D6
:1011A00020C0197F8F36A9F0803720F4883509F0E8
:1011B000AEC00BC0803721F0883709F0A8C001C04D
:1011C000106114FF09C0146007C014FF08C0166046
:1011D00006C028E030E005C020E130E002C020E198
:1011E00032E0F50117FF07C0608171818281938130
:1011F00044E050E006C06081718180E090E042E010
:1012000050E0A40EB51EA2010E94D309D82ED41816
:10121000012F0F7706FF09C00E7FDF1430F404FFA3
:1012200006C002FD04C00F7E02C01D2D01C01F2D8F
:10123000802F90E004FF0CC0FE01ED0DF11D208118
:10124000203311F4097E09C002FF06C01E5F05C0ED
:1012500086789070009709F01F5F802E992403FD17
:1012600012C000FF0DC0FD2C1E1550F4FE0CF11A2B
:101270001E2D06C080E290E0B3010E94A7091F5F07
:101280001E15C0F304C01E1510F4E11A01C0EE24AF
:1012900084FE0FC080E390E0B3010E94A70982FEA4
:1012A0001FC081FE03C088E590E010C088E790E091
:1012B0000DC0C40186789070009791F081FC02C047
:1012C00080E201C08BE207FD8DE290E0B3010E9455
:1012D000A70906C080E390E0B3010E94A709FA9431
:1012E000DF14C0F3DA94F201ED0DF11D808190E07E
:1012F000B3010E94A709DD20A9F706C080E290E0B3
:10130000B3010E94A709EA94EE20C1F740CEF30191
:101310008681978102C08FEF9FEF2D96E2E10C94BA
:101320004D0AFC010590615070400110D8F780957E
:1013300090958E0F9F1F0895FC01615070400190A1
:101340000110D8F7809590958E0F9F1F08950F93E9
:101350001F93CF93DF938C01EB018B8181FF1BC027
:1013600082FF0DC02E813F818C819D812817390716
:1013700064F4E881F9810193F983E88306C0E88584
:10138000F985802F0995009731F48E819F81019610
:101390009F838E8302C00FEF1FEFC801DF91CF91B3
:1013A0001F910F910895FA01AA27283051F1203199
:1013B00081F1E8946F936E7F6E5F7F4F8F4F9F4FE9
:1013C000AF4FB1E03ED0B4E03CD0670F781F891F2B
:1013D0009A1FA11D680F791F8A1F911DA11D6A0FF9
:1013E000711D811D911DA11D20D009F468943F91AC
:1013F0002AE0269F11243019305D3193DEF6CF01AB
:101400000895462F4770405D4193B3E00FD0C9F770
:10141000F6CF462F4F70405D4A3318F0495D31FDDD
:101420004052419302D0A9F7EACFB4E0A695979530
:10143000879577956795BA95C9F700976105710506
:1014400008959B01AC010A2E069457954795379550
:101450002795BA95C9F7620F731F841F951FA01DAA
:1014600008952F923F924F925F926F927F928F9248
:101470009F92AF92BF92CF92DF92EF92FF920F9323
:101480001F93CF93DF93CDB7DEB7CA1BDB0B0FB62D
:10149000F894DEBF0FBECDBF09942A8839884888EA
:1014A0005F846E847D848C849B84AA84B984C88480
:1014B000DF80EE80FD800C811B81AA81B981CE0F77
:1014C000D11D0FB6F894DEBF0FBECDBFED0108955C
:0414D000F894FFCFBE
:1014D4000102030405060708090A0B0C0D0E0F1080
:1014E4004B6579203D2000253032782F2530327825
:1014F4002F32302530327800253032783A25303298
:10150400783A2530327800446174650054696D6519
:10151400004C617374206B65792069733D004461EC
:1015240074653D0054696D653D00436C6561726985
:101534006E67204D656D2E2E2E00416C6C2044612B
:101544007461006172652064656C65746564210072
:00000001FF
